{
  "contractName": "TTS",
  "abi": [
    {
      "inputs": [],
      "stateMutability": "nonpayable",
      "type": "constructor"
    },
    {
      "anonymous": false,
      "inputs": [
        {
          "indexed": true,
          "internalType": "address",
          "name": "owner",
          "type": "address"
        },
        {
          "indexed": true,
          "internalType": "address",
          "name": "spender",
          "type": "address"
        },
        {
          "indexed": false,
          "internalType": "uint256",
          "name": "value",
          "type": "uint256"
        }
      ],
      "name": "Approval",
      "type": "event"
    },
    {
      "anonymous": false,
      "inputs": [
        {
          "indexed": true,
          "internalType": "uint256",
          "name": "",
          "type": "uint256"
        },
        {
          "indexed": true,
          "internalType": "address",
          "name": "",
          "type": "address"
        }
      ],
      "name": "ChangeWalletAddress",
      "type": "event"
    },
    {
      "anonymous": false,
      "inputs": [
        {
          "indexed": true,
          "internalType": "uint256",
          "name": "",
          "type": "uint256"
        },
        {
          "indexed": true,
          "internalType": "uint256",
          "name": "",
          "type": "uint256"
        },
        {
          "indexed": true,
          "internalType": "uint256",
          "name": "",
          "type": "uint256"
        }
      ],
      "name": "DiscordTransfer",
      "type": "event"
    },
    {
      "anonymous": false,
      "inputs": [
        {
          "indexed": true,
          "internalType": "uint256",
          "name": "",
          "type": "uint256"
        },
        {
          "indexed": true,
          "internalType": "uint256",
          "name": "",
          "type": "uint256"
        }
      ],
      "name": "Mine",
      "type": "event"
    },
    {
      "anonymous": false,
      "inputs": [
        {
          "indexed": true,
          "internalType": "uint256",
          "name": "",
          "type": "uint256"
        }
      ],
      "name": "Register",
      "type": "event"
    },
    {
      "anonymous": false,
      "inputs": [
        {
          "indexed": true,
          "internalType": "address",
          "name": "from",
          "type": "address"
        },
        {
          "indexed": true,
          "internalType": "address",
          "name": "to",
          "type": "address"
        },
        {
          "indexed": false,
          "internalType": "uint256",
          "name": "value",
          "type": "uint256"
        }
      ],
      "name": "Transfer",
      "type": "event"
    },
    {
      "inputs": [
        {
          "internalType": "address",
          "name": "owner",
          "type": "address"
        },
        {
          "internalType": "address",
          "name": "spender",
          "type": "address"
        }
      ],
      "name": "allowance",
      "outputs": [
        {
          "internalType": "uint256",
          "name": "",
          "type": "uint256"
        }
      ],
      "stateMutability": "view",
      "type": "function",
      "constant": true
    },
    {
      "inputs": [
        {
          "internalType": "address",
          "name": "spender",
          "type": "address"
        },
        {
          "internalType": "uint256",
          "name": "amount",
          "type": "uint256"
        }
      ],
      "name": "approve",
      "outputs": [
        {
          "internalType": "bool",
          "name": "",
          "type": "bool"
        }
      ],
      "stateMutability": "nonpayable",
      "type": "function"
    },
    {
      "inputs": [
        {
          "internalType": "address",
          "name": "account",
          "type": "address"
        }
      ],
      "name": "balanceOf",
      "outputs": [
        {
          "internalType": "uint256",
          "name": "",
          "type": "uint256"
        }
      ],
      "stateMutability": "view",
      "type": "function",
      "constant": true
    },
    {
      "inputs": [],
      "name": "decimals",
      "outputs": [
        {
          "internalType": "uint8",
          "name": "",
          "type": "uint8"
        }
      ],
      "stateMutability": "view",
      "type": "function",
      "constant": true
    },
    {
      "inputs": [
        {
          "internalType": "address",
          "name": "spender",
          "type": "address"
        },
        {
          "internalType": "uint256",
          "name": "subtractedValue",
          "type": "uint256"
        }
      ],
      "name": "decreaseAllowance",
      "outputs": [
        {
          "internalType": "bool",
          "name": "",
          "type": "bool"
        }
      ],
      "stateMutability": "nonpayable",
      "type": "function"
    },
    {
      "inputs": [
        {
          "internalType": "uint256",
          "name": "",
          "type": "uint256"
        }
      ],
      "name": "discordIdAddressMap",
      "outputs": [
        {
          "internalType": "address",
          "name": "",
          "type": "address"
        }
      ],
      "stateMutability": "view",
      "type": "function",
      "constant": true
    },
    {
      "inputs": [
        {
          "internalType": "uint256",
          "name": "",
          "type": "uint256"
        }
      ],
      "name": "discordIdPrivateKeyMap",
      "outputs": [
        {
          "internalType": "string",
          "name": "",
          "type": "string"
        }
      ],
      "stateMutability": "view",
      "type": "function",
      "constant": true
    },
    {
      "inputs": [
        {
          "internalType": "address",
          "name": "spender",
          "type": "address"
        },
        {
          "internalType": "uint256",
          "name": "addedValue",
          "type": "uint256"
        }
      ],
      "name": "increaseAllowance",
      "outputs": [
        {
          "internalType": "bool",
          "name": "",
          "type": "bool"
        }
      ],
      "stateMutability": "nonpayable",
      "type": "function"
    },
    {
      "inputs": [],
      "name": "name",
      "outputs": [
        {
          "internalType": "string",
          "name": "",
          "type": "string"
        }
      ],
      "stateMutability": "view",
      "type": "function",
      "constant": true
    },
    {
      "inputs": [],
      "name": "symbol",
      "outputs": [
        {
          "internalType": "string",
          "name": "",
          "type": "string"
        }
      ],
      "stateMutability": "view",
      "type": "function",
      "constant": true
    },
    {
      "inputs": [],
      "name": "totalSupply",
      "outputs": [
        {
          "internalType": "uint256",
          "name": "",
          "type": "uint256"
        }
      ],
      "stateMutability": "view",
      "type": "function",
      "constant": true
    },
    {
      "inputs": [
        {
          "internalType": "address",
          "name": "recipient",
          "type": "address"
        },
        {
          "internalType": "uint256",
          "name": "amount",
          "type": "uint256"
        }
      ],
      "name": "transfer",
      "outputs": [
        {
          "internalType": "bool",
          "name": "",
          "type": "bool"
        }
      ],
      "stateMutability": "nonpayable",
      "type": "function"
    },
    {
      "inputs": [
        {
          "internalType": "address",
          "name": "sender",
          "type": "address"
        },
        {
          "internalType": "address",
          "name": "recipient",
          "type": "address"
        },
        {
          "internalType": "uint256",
          "name": "amount",
          "type": "uint256"
        }
      ],
      "name": "transferFrom",
      "outputs": [
        {
          "internalType": "bool",
          "name": "",
          "type": "bool"
        }
      ],
      "stateMutability": "nonpayable",
      "type": "function"
    },
    {
      "inputs": [
        {
          "internalType": "uint256",
          "name": "discordId",
          "type": "uint256"
        },
        {
          "internalType": "string",
          "name": "privateKey",
          "type": "string"
        },
        {
          "internalType": "address",
          "name": "addr",
          "type": "address"
        }
      ],
      "name": "register",
      "outputs": [],
      "stateMutability": "nonpayable",
      "type": "function"
    },
    {
      "inputs": [
        {
          "internalType": "uint256",
          "name": "discordId",
          "type": "uint256"
        },
        {
          "internalType": "uint256",
          "name": "amount",
          "type": "uint256"
        }
      ],
      "name": "mine",
      "outputs": [],
      "stateMutability": "nonpayable",
      "type": "function"
    },
    {
      "inputs": [
        {
          "internalType": "uint256",
          "name": "from",
          "type": "uint256"
        },
        {
          "internalType": "uint256",
          "name": "to",
          "type": "uint256"
        },
        {
          "internalType": "uint256",
          "name": "amount",
          "type": "uint256"
        }
      ],
      "name": "discordTransfer",
      "outputs": [],
      "stateMutability": "nonpayable",
      "type": "function"
    },
    {
      "inputs": [
        {
          "internalType": "uint256",
          "name": "discordId",
          "type": "uint256"
        }
      ],
      "name": "getBalance",
      "outputs": [
        {
          "internalType": "uint256",
          "name": "",
          "type": "uint256"
        }
      ],
      "stateMutability": "view",
      "type": "function",
      "constant": true
    },
    {
      "inputs": [
        {
          "internalType": "uint256",
          "name": "discordId",
          "type": "uint256"
        }
      ],
      "name": "getWalletAddres",
      "outputs": [
        {
          "internalType": "address",
          "name": "",
          "type": "address"
        }
      ],
      "stateMutability": "view",
      "type": "function",
      "constant": true
    },
    {
      "inputs": [
        {
          "internalType": "uint256",
          "name": "discordId",
          "type": "uint256"
        }
      ],
      "name": "getPrivateKey",
      "outputs": [
        {
          "internalType": "string",
          "name": "",
          "type": "string"
        }
      ],
      "stateMutability": "view",
      "type": "function",
      "constant": true
    },
    {
      "inputs": [
        {
          "internalType": "uint256",
          "name": "discordId",
          "type": "uint256"
        },
        {
          "internalType": "address",
          "name": "walletAddress",
          "type": "address"
        }
      ],
      "name": "setWalletAddress",
      "outputs": [],
      "stateMutability": "nonpayable",
      "type": "function"
    }
  ],
  "bytecode": "0x60806040523480156200001157600080fd5b506040518060400160405280600f81526020017f546f6e67205368696e6720436f696e00000000000000000000000000000000008152506040518060400160405280600381526020017f5454530000000000000000000000000000000000000000000000000000000000815250816003908051906020019062000096929190620000b8565b508060049080519060200190620000af929190620000b8565b505050620001cd565b828054620000c69062000168565b90600052602060002090601f016020900481019282620000ea576000855562000136565b82601f106200010557805160ff191683800117855562000136565b8280016001018555821562000136579182015b828111156200013557825182559160200191906001019062000118565b5b50905062000145919062000149565b5090565b5b80821115620001645760008160009055506001016200014a565b5090565b600060028204905060018216806200018157607f821691505b602082108114156200019857620001976200019e565b5b50919050565b7f4e487b7100000000000000000000000000000000000000000000000000000000600052602260045260246000fd5b61243280620001dd6000396000f3fe608060405234801561001057600080fd5b506004361061012b5760003560e01c806339509351116100ad5780639fb8405e116100715780639fb8405e14610368578063a457c2d714610398578063a9059cbb146103c8578063bd0545eb146103f8578063dd62ed3e146104285761012b565b806339509351146102b2578063601219b7146102e257806370a08231146102fe57806381238c8e1461032e57806395d89b411461034a5761012b565b806315b9695b116100f457806315b9695b146101e657806318160ddd146102165780631e0104391461023457806323b872dd14610264578063313ce567146102945761012b565b8062d691221461013057806306fdde031461014c578063071e95031461016a578063095ea7b3146101865780630d0b0d30146101b6575b600080fd5b61014a60048036038101906101459190611b44565b610458565b005b610154610647565b6040516101619190611fc8565b60405180910390f35b610184600480360381019061017f9190611b08565b6106d9565b005b6101a0600480360381019061019b9190611a00565b6107ed565b6040516101ad9190611fad565b60405180910390f35b6101d060048036038101906101cb9190611a3c565b61080b565b6040516101dd9190611fc8565b60405180910390f35b61020060048036038101906101fb9190611a3c565b610955565b60405161020d9190611f92565b60405180910390f35b61021e610988565b60405161022b919061212a565b60405180910390f35b61024e60048036038101906102499190611a3c565b610992565b60405161025b919061212a565b60405180910390f35b61027e600480360381019061027991906119b1565b610a7c565b60405161028b9190611fad565b60405180910390f35b61029c610b7d565b6040516102a99190612145565b60405180910390f35b6102cc60048036038101906102c79190611a00565b610b86565b6040516102d99190611fad565b60405180910390f35b6102fc60048036038101906102f79190611aa1565b610c32565b005b6103186004803603810190610313919061194c565b610d80565b604051610325919061212a565b60405180910390f35b61034860048036038101906103439190611a65565b610dc8565b005b610352610ebf565b60405161035f9190611fc8565b60405180910390f35b610382600480360381019061037d9190611a3c565b610f51565b60405161038f9190611f92565b60405180910390f35b6103b260048036038101906103ad9190611a00565b611033565b6040516103bf9190611fad565b60405180910390f35b6103e260048036038101906103dd9190611a00565b611127565b6040516103ef9190611fad565b60405180910390f35b610412600480360381019061040d9190611a3c565b611145565b60405161041f9190611fc8565b60405180910390f35b610442600480360381019061043d9190611975565b6111e5565b60405161044f919061212a565b60405180910390f35b82600073ffffffffffffffffffffffffffffffffffffffff166005600083815260200190815260200160002060009054906101000a900473ffffffffffffffffffffffffffffffffffffffff1673ffffffffffffffffffffffffffffffffffffffff1614156104fc576040517f08c379a00000000000000000000000000000000000000000000000000000000081526004016104f39061206a565b60405180910390fd5b82600073ffffffffffffffffffffffffffffffffffffffff166005600083815260200190815260200160002060009054906101000a900473ffffffffffffffffffffffffffffffffffffffff1673ffffffffffffffffffffffffffffffffffffffff1614156105a0576040517f08c379a00000000000000000000000000000000000000000000000000000000081526004016105979061206a565b60405180910390fd5b6106116005600087815260200190815260200160002060009054906101000a900473ffffffffffffffffffffffffffffffffffffffff166005600087815260200190815260200160002060009054906101000a900473ffffffffffffffffffffffffffffffffffffffff168561126c565b8284867f493ead98bcc0192f5e6cbdd22acb688f3bb0df59afe0774d08a2dadb0dec78a260405160405180910390a45050505050565b606060038054610656906122fe565b80601f0160208091040260200160405190810160405280929190818152602001828054610682906122fe565b80156106cf5780601f106106a4576101008083540402835291602001916106cf565b820191906000526020600020905b8154815290600101906020018083116106b257829003601f168201915b5050505050905090565b81600073ffffffffffffffffffffffffffffffffffffffff166005600083815260200190815260200160002060009054906101000a900473ffffffffffffffffffffffffffffffffffffffff1673ffffffffffffffffffffffffffffffffffffffff16141561077d576040517f08c379a00000000000000000000000000000000000000000000000000000000081526004016107749061206a565b60405180910390fd5b6107ba6005600085815260200190815260200160002060009054906101000a900473ffffffffffffffffffffffffffffffffffffffff16836114eb565b81837f1faddc775888fe5a4039b216a112b682bff187895f0f3950c63249c1f7930f3860405160405180910390a3505050565b60006108016107fa61163f565b8484611647565b6001905092915050565b606081600073ffffffffffffffffffffffffffffffffffffffff166005600083815260200190815260200160002060009054906101000a900473ffffffffffffffffffffffffffffffffffffffff1673ffffffffffffffffffffffffffffffffffffffff1614156108b1576040517f08c379a00000000000000000000000000000000000000000000000000000000081526004016108a89061206a565b60405180910390fd5b6006600084815260200190815260200160002080546108cf906122fe565b80601f01602080910402602001604051908101604052809291908181526020018280546108fb906122fe565b80156109485780601f1061091d57610100808354040283529160200191610948565b820191906000526020600020905b81548152906001019060200180831161092b57829003601f168201915b5050505050915050919050565b60056020528060005260406000206000915054906101000a900473ffffffffffffffffffffffffffffffffffffffff1681565b6000600254905090565b600081600073ffffffffffffffffffffffffffffffffffffffff166005600083815260200190815260200160002060009054906101000a900473ffffffffffffffffffffffffffffffffffffffff1673ffffffffffffffffffffffffffffffffffffffff161415610a38576040517f08c379a0000000000000000000000000000000000000000000000000000000008152600401610a2f9061206a565b60405180910390fd5b610a746005600085815260200190815260200160002060009054906101000a900473ffffffffffffffffffffffffffffffffffffffff16610d80565b915050919050565b6000610a8984848461126c565b6000600160008673ffffffffffffffffffffffffffffffffffffffff1673ffffffffffffffffffffffffffffffffffffffff1681526020019081526020016000206000610ad461163f565b73ffffffffffffffffffffffffffffffffffffffff1673ffffffffffffffffffffffffffffffffffffffff16815260200190815260200160002054905082811015610b54576040517f08c379a0000000000000000000000000000000000000000000000000000000008152600401610b4b9061208a565b60405180910390fd5b610b7185610b6061163f565b8584610b6c9190612233565b611647565b60019150509392505050565b60006012905090565b6000610c28610b9361163f565b848460016000610ba161163f565b73ffffffffffffffffffffffffffffffffffffffff1673ffffffffffffffffffffffffffffffffffffffff16815260200190815260200160002060008873ffffffffffffffffffffffffffffffffffffffff1673ffffffffffffffffffffffffffffffffffffffff16815260200190815260200160002054610c2391906121dd565b611647565b6001905092915050565b600073ffffffffffffffffffffffffffffffffffffffff166005600085815260200190815260200160002060009054906101000a900473ffffffffffffffffffffffffffffffffffffffff1673ffffffffffffffffffffffffffffffffffffffff1614610cd4576040517f08c379a0000000000000000000000000000000000000000000000000000000008152600401610ccb9061202a565b60405180910390fd5b806005600085815260200190815260200160002060006101000a81548173ffffffffffffffffffffffffffffffffffffffff021916908373ffffffffffffffffffffffffffffffffffffffff16021790555081600660008581526020019081526020016000209080519060200190610d4d929190611817565b50827fa18caf81bead264fa1872fa13294e57db41fcbee753dce1d88d33ef5f595a29d60405160405180910390a2505050565b60008060008373ffffffffffffffffffffffffffffffffffffffff1673ffffffffffffffffffffffffffffffffffffffff168152602001908152602001600020549050919050565b806005600084815260200190815260200160002060006101000a81548173ffffffffffffffffffffffffffffffffffffffff021916908373ffffffffffffffffffffffffffffffffffffffff1602179055506040518060400160405280601381526020017f5573657220646566696e65642077616c6c657400000000000000000000000000815250600660008481526020019081526020016000209080519060200190610e76929190611817565b508073ffffffffffffffffffffffffffffffffffffffff16827fcc9548e8b845a7a879c83b5c9f0ee8796e3614d0f8370cb82a440133cddc1f9360405160405180910390a35050565b606060048054610ece906122fe565b80601f0160208091040260200160405190810160405280929190818152602001828054610efa906122fe565b8015610f475780601f10610f1c57610100808354040283529160200191610f47565b820191906000526020600020905b815481529060010190602001808311610f2a57829003601f168201915b5050505050905090565b600081600073ffffffffffffffffffffffffffffffffffffffff166005600083815260200190815260200160002060009054906101000a900473ffffffffffffffffffffffffffffffffffffffff1673ffffffffffffffffffffffffffffffffffffffff161415610ff7576040517f08c379a0000000000000000000000000000000000000000000000000000000008152600401610fee9061206a565b60405180910390fd5b6005600084815260200190815260200160002060009054906101000a900473ffffffffffffffffffffffffffffffffffffffff16915050919050565b6000806001600061104261163f565b73ffffffffffffffffffffffffffffffffffffffff1673ffffffffffffffffffffffffffffffffffffffff16815260200190815260200160002060008573ffffffffffffffffffffffffffffffffffffffff1673ffffffffffffffffffffffffffffffffffffffff168152602001908152602001600020549050828110156110ff576040517f08c379a00000000000000000000000000000000000000000000000000000000081526004016110f6906120ea565b60405180910390fd5b61111c61110a61163f565b8585846111179190612233565b611647565b600191505092915050565b600061113b61113461163f565b848461126c565b6001905092915050565b60066020528060005260406000206000915090508054611164906122fe565b80601f0160208091040260200160405190810160405280929190818152602001828054611190906122fe565b80156111dd5780601f106111b2576101008083540402835291602001916111dd565b820191906000526020600020905b8154815290600101906020018083116111c057829003601f168201915b505050505081565b6000600160008473ffffffffffffffffffffffffffffffffffffffff1673ffffffffffffffffffffffffffffffffffffffff16815260200190815260200160002060008373ffffffffffffffffffffffffffffffffffffffff1673ffffffffffffffffffffffffffffffffffffffff16815260200190815260200160002054905092915050565b600073ffffffffffffffffffffffffffffffffffffffff168373ffffffffffffffffffffffffffffffffffffffff1614156112dc576040517f08c379a00000000000000000000000000000000000000000000000000000000081526004016112d3906120aa565b60405180910390fd5b600073ffffffffffffffffffffffffffffffffffffffff168273ffffffffffffffffffffffffffffffffffffffff16141561134c576040517f08c379a000000000000000000000000000000000000000000000000000000000815260040161134390611fea565b60405180910390fd5b611357838383611812565b60008060008573ffffffffffffffffffffffffffffffffffffffff1673ffffffffffffffffffffffffffffffffffffffff168152602001908152602001600020549050818110156113dd576040517f08c379a00000000000000000000000000000000000000000000000000000000081526004016113d49061204a565b60405180910390fd5b81816113e99190612233565b6000808673ffffffffffffffffffffffffffffffffffffffff1673ffffffffffffffffffffffffffffffffffffffff16815260200190815260200160002081905550816000808573ffffffffffffffffffffffffffffffffffffffff1673ffffffffffffffffffffffffffffffffffffffff168152602001908152602001600020600082825461147991906121dd565b925050819055508273ffffffffffffffffffffffffffffffffffffffff168473ffffffffffffffffffffffffffffffffffffffff167fddf252ad1be2c89b69c2b068fc378daa952ba7f163c4a11628f55a4df523b3ef846040516114dd919061212a565b60405180910390a350505050565b600073ffffffffffffffffffffffffffffffffffffffff168273ffffffffffffffffffffffffffffffffffffffff16141561155b576040517f08c379a00000000000000000000000000000000000000000000000000000000081526004016115529061210a565b60405180910390fd5b61156760008383611812565b806002600082825461157991906121dd565b92505081905550806000808473ffffffffffffffffffffffffffffffffffffffff1673ffffffffffffffffffffffffffffffffffffffff16815260200190815260200160002060008282546115ce91906121dd565b925050819055508173ffffffffffffffffffffffffffffffffffffffff16600073ffffffffffffffffffffffffffffffffffffffff167fddf252ad1be2c89b69c2b068fc378daa952ba7f163c4a11628f55a4df523b3ef83604051611633919061212a565b60405180910390a35050565b600033905090565b600073ffffffffffffffffffffffffffffffffffffffff168373ffffffffffffffffffffffffffffffffffffffff1614156116b7576040517f08c379a00000000000000000000000000000000000000000000000000000000081526004016116ae906120ca565b60405180910390fd5b600073ffffffffffffffffffffffffffffffffffffffff168273ffffffffffffffffffffffffffffffffffffffff161415611727576040517f08c379a000000000000000000000000000000000000000000000000000000000815260040161171e9061200a565b60405180910390fd5b80600160008573ffffffffffffffffffffffffffffffffffffffff1673ffffffffffffffffffffffffffffffffffffffff16815260200190815260200160002060008473ffffffffffffffffffffffffffffffffffffffff1673ffffffffffffffffffffffffffffffffffffffff168152602001908152602001600020819055508173ffffffffffffffffffffffffffffffffffffffff168373ffffffffffffffffffffffffffffffffffffffff167f8c5be1e5ebec7d5bd14f71427d1e84f3dd0314c0f7b2291e5b200ac8c7c3b92583604051611805919061212a565b60405180910390a3505050565b505050565b828054611823906122fe565b90600052602060002090601f016020900481019282611845576000855561188c565b82601f1061185e57805160ff191683800117855561188c565b8280016001018555821561188c579182015b8281111561188b578251825591602001919060010190611870565b5b509050611899919061189d565b5090565b5b808211156118b657600081600090555060010161189e565b5090565b60006118cd6118c884612191565b612160565b9050828152602081018484840111156118e557600080fd5b6118f08482856122bc565b509392505050565b600081359050611907816123ce565b92915050565b600082601f83011261191e57600080fd5b813561192e8482602086016118ba565b91505092915050565b600081359050611946816123e5565b92915050565b60006020828403121561195e57600080fd5b600061196c848285016118f8565b91505092915050565b6000806040838503121561198857600080fd5b6000611996858286016118f8565b92505060206119a7858286016118f8565b9150509250929050565b6000806000606084860312156119c657600080fd5b60006119d4868287016118f8565b93505060206119e5868287016118f8565b92505060406119f686828701611937565b9150509250925092565b60008060408385031215611a1357600080fd5b6000611a21858286016118f8565b9250506020611a3285828601611937565b9150509250929050565b600060208284031215611a4e57600080fd5b6000611a5c84828501611937565b91505092915050565b60008060408385031215611a7857600080fd5b6000611a8685828601611937565b9250506020611a97858286016118f8565b9150509250929050565b600080600060608486031215611ab657600080fd5b6000611ac486828701611937565b935050602084013567ffffffffffffffff811115611ae157600080fd5b611aed8682870161190d565b9250506040611afe868287016118f8565b9150509250925092565b60008060408385031215611b1b57600080fd5b6000611b2985828601611937565b9250506020611b3a85828601611937565b9150509250929050565b600080600060608486031215611b5957600080fd5b6000611b6786828701611937565b9350506020611b7886828701611937565b9250506040611b8986828701611937565b9150509250925092565b611b9c81612267565b82525050565b611bab81612279565b82525050565b6000611bbc826121c1565b611bc681856121cc565b9350611bd68185602086016122cb565b611bdf816123bd565b840191505092915050565b6000611bf76023836121cc565b91507f45524332303a207472616e7366657220746f20746865207a65726f206164647260008301527f65737300000000000000000000000000000000000000000000000000000000006020830152604082019050919050565b6000611c5d6022836121cc565b91507f45524332303a20617070726f766520746f20746865207a65726f20616464726560008301527f73730000000000000000000000000000000000000000000000000000000000006020830152604082019050919050565b6000611cc36012836121cc565b91507f616c7265616479207265676973746572656400000000000000000000000000006000830152602082019050919050565b6000611d036026836121cc565b91507f45524332303a207472616e7366657220616d6f756e742065786365656473206260008301527f616c616e636500000000000000000000000000000000000000000000000000006020830152604082019050919050565b6000611d696012836121cc565b91507f54686973206973206e6f742061207573657200000000000000000000000000006000830152602082019050919050565b6000611da96028836121cc565b91507f45524332303a207472616e7366657220616d6f756e742065786365656473206160008301527f6c6c6f77616e63650000000000000000000000000000000000000000000000006020830152604082019050919050565b6000611e0f6025836121cc565b91507f45524332303a207472616e736665722066726f6d20746865207a65726f20616460008301527f64726573730000000000000000000000000000000000000000000000000000006020830152604082019050919050565b6000611e756024836121cc565b91507f45524332303a20617070726f76652066726f6d20746865207a65726f2061646460008301527f72657373000000000000000000000000000000000000000000000000000000006020830152604082019050919050565b6000611edb6025836121cc565b91507f45524332303a2064656372656173656420616c6c6f77616e63652062656c6f7760008301527f207a65726f0000000000000000000000000000000000000000000000000000006020830152604082019050919050565b6000611f41601f836121cc565b91507f45524332303a206d696e7420746f20746865207a65726f2061646472657373006000830152602082019050919050565b611f7d816122a5565b82525050565b611f8c816122af565b82525050565b6000602082019050611fa76000830184611b93565b92915050565b6000602082019050611fc26000830184611ba2565b92915050565b60006020820190508181036000830152611fe28184611bb1565b905092915050565b6000602082019050818103600083015261200381611bea565b9050919050565b6000602082019050818103600083015261202381611c50565b9050919050565b6000602082019050818103600083015261204381611cb6565b9050919050565b6000602082019050818103600083015261206381611cf6565b9050919050565b6000602082019050818103600083015261208381611d5c565b9050919050565b600060208201905081810360008301526120a381611d9c565b9050919050565b600060208201905081810360008301526120c381611e02565b9050919050565b600060208201905081810360008301526120e381611e68565b9050919050565b6000602082019050818103600083015261210381611ece565b9050919050565b6000602082019050818103600083015261212381611f34565b9050919050565b600060208201905061213f6000830184611f74565b92915050565b600060208201905061215a6000830184611f83565b92915050565b6000604051905081810181811067ffffffffffffffff821117156121875761218661238e565b5b8060405250919050565b600067ffffffffffffffff8211156121ac576121ab61238e565b5b601f19601f8301169050602081019050919050565b600081519050919050565b600082825260208201905092915050565b60006121e8826122a5565b91506121f3836122a5565b9250827fffffffffffffffffffffffffffffffffffffffffffffffffffffffffffffffff0382111561222857612227612330565b5b828201905092915050565b600061223e826122a5565b9150612249836122a5565b92508282101561225c5761225b612330565b5b828203905092915050565b600061227282612285565b9050919050565b60008115159050919050565b600073ffffffffffffffffffffffffffffffffffffffff82169050919050565b6000819050919050565b600060ff82169050919050565b82818337600083830152505050565b60005b838110156122e95780820151818401526020810190506122ce565b838111156122f8576000848401525b50505050565b6000600282049050600182168061231657607f821691505b6020821081141561232a5761232961235f565b5b50919050565b7f4e487b7100000000000000000000000000000000000000000000000000000000600052601160045260246000fd5b7f4e487b7100000000000000000000000000000000000000000000000000000000600052602260045260246000fd5b7f4e487b7100000000000000000000000000000000000000000000000000000000600052604160045260246000fd5b6000601f19601f8301169050919050565b6123d781612267565b81146123e257600080fd5b50565b6123ee816122a5565b81146123f957600080fd5b5056fea2646970667358221220e185ae5c70d92ab60a828fc7034a1d4844de28c0aaa419ec563ab1ff92c3486c64736f6c63430008000033",
  "immutableReferences": {},
  "source": "pragma solidity ^0.8.0;\n\nimport \"../node_modules/@openzeppelin/contracts/token/ERC20/ERC20.sol\";\n\ncontract TTS is ERC20 {\n    constructor() ERC20(\"Tong Shing Coin\", \"TTS\") {}\n\n    event Mine(uint256 indexed, uint256 indexed);\n    event DiscordTransfer(uint256 indexed, uint256 indexed, uint256 indexed);\n    event ChangeWalletAddress(uint256 indexed, address indexed);\n    event Register(uint256 indexed);\n\n    mapping(uint256 => address) public discordIdAddressMap;\n    mapping(uint256 => string) public discordIdPrivateKeyMap;\n\n    modifier isUser(uint256 discordId) {\n        require(\n            discordIdAddressMap[discordId] != address(0),\n            \"This is not a user\"\n        );\n        _;\n    }\n\n    function register(\n        uint256 discordId,\n        string memory privateKey,\n        address addr\n    ) public {\n        require(\n            discordIdAddressMap[discordId] == address(0),\n            \"already registered\"\n        );\n        discordIdAddressMap[discordId] = addr;\n        discordIdPrivateKeyMap[discordId] = privateKey;\n        emit Register(discordId);\n    }\n\n    function mine(uint256 discordId, uint256 amount) public isUser(discordId) {\n        _mint(discordIdAddressMap[discordId], amount);\n        emit Mine(discordId, amount);\n    }\n\n    function discordTransfer(\n        uint256 from,\n        uint256 to,\n        uint256 amount\n    ) public isUser(from) isUser(to) {\n        _transfer(discordIdAddressMap[from], discordIdAddressMap[to], amount);\n        emit DiscordTransfer(from, to, amount);\n    }\n\n    function getBalance(uint256 discordId)\n        public\n        view\n        isUser(discordId)\n        returns (uint256)\n    {\n        return balanceOf(discordIdAddressMap[discordId]);\n    }\n\n    function getWalletAddres(uint256 discordId)\n        public\n        view\n        isUser(discordId)\n        returns (address)\n    {\n        return discordIdAddressMap[discordId];\n    }\n\n    function getPrivateKey(uint256 discordId)\n        public\n        view\n        isUser(discordId)\n        returns (string memory)\n    {\n        return discordIdPrivateKeyMap[discordId];\n    }\n\n    function setWalletAddress(uint256 discordId, address walletAddress) public {\n        discordIdAddressMap[discordId] = walletAddress;\n        discordIdPrivateKeyMap[discordId] = \"User defined wallet\";\n        emit ChangeWalletAddress(discordId, walletAddress);\n    }\n}\n",
  "sourcePath": "/Users/miketsui/Desktop/playground/tts-coin-bot/smartContract/contracts/TTS.sol",
  "compiler": {
    "name": "solc",
    "version": "0.8.0+commit.c7dfd78e.Emscripten.clang"
  },
  "schemaVersion": "3.3.4",
  "updatedAt": "2021-04-05T03:50:16.960Z",
  "networkType": "ethereum",
  "devdoc": {
    "kind": "dev",
    "methods": {
      "allowance(address,address)": {
        "details": "See {IERC20-allowance}."
      },
      "approve(address,uint256)": {
        "details": "See {IERC20-approve}. Requirements: - `spender` cannot be the zero address."
      },
      "balanceOf(address)": {
        "details": "See {IERC20-balanceOf}."
      },
      "decimals()": {
        "details": "Returns the number of decimals used to get its user representation. For example, if `decimals` equals `2`, a balance of `505` tokens should be displayed to a user as `5,05` (`505 / 10 ** 2`). Tokens usually opt for a value of 18, imitating the relationship between Ether and Wei. This is the value {ERC20} uses, unless this function is overloaded; NOTE: This information is only used for _display_ purposes: it in no way affects any of the arithmetic of the contract, including {IERC20-balanceOf} and {IERC20-transfer}."
      },
      "decreaseAllowance(address,uint256)": {
        "details": "Atomically decreases the allowance granted to `spender` by the caller. This is an alternative to {approve} that can be used as a mitigation for problems described in {IERC20-approve}. Emits an {Approval} event indicating the updated allowance. Requirements: - `spender` cannot be the zero address. - `spender` must have allowance for the caller of at least `subtractedValue`."
      },
      "increaseAllowance(address,uint256)": {
        "details": "Atomically increases the allowance granted to `spender` by the caller. This is an alternative to {approve} that can be used as a mitigation for problems described in {IERC20-approve}. Emits an {Approval} event indicating the updated allowance. Requirements: - `spender` cannot be the zero address."
      },
      "name()": {
        "details": "Returns the name of the token."
      },
      "symbol()": {
        "details": "Returns the symbol of the token, usually a shorter version of the name."
      },
      "totalSupply()": {
        "details": "See {IERC20-totalSupply}."
      },
      "transfer(address,uint256)": {
        "details": "See {IERC20-transfer}. Requirements: - `recipient` cannot be the zero address. - the caller must have a balance of at least `amount`."
      },
      "transferFrom(address,address,uint256)": {
        "details": "See {IERC20-transferFrom}. Emits an {Approval} event indicating the updated allowance. This is not required by the EIP. See the note at the beginning of {ERC20}. Requirements: - `sender` and `recipient` cannot be the zero address. - `sender` must have a balance of at least `amount`. - the caller must have allowance for ``sender``'s tokens of at least `amount`."
      }
    },
    "version": 1
  },
  "userdoc": {
    "kind": "user",
    "methods": {},
    "version": 1
  }
}