{
  "contractName": "TTS",
  "abi": [
    {
      "inputs": [],
      "stateMutability": "nonpayable",
      "type": "constructor"
    },
    {
      "anonymous": false,
      "inputs": [
        {
          "indexed": true,
          "internalType": "address",
          "name": "owner",
          "type": "address"
        },
        {
          "indexed": true,
          "internalType": "address",
          "name": "spender",
          "type": "address"
        },
        {
          "indexed": false,
          "internalType": "uint256",
          "name": "value",
          "type": "uint256"
        }
      ],
      "name": "Approval",
      "type": "event"
    },
    {
      "anonymous": false,
      "inputs": [
        {
          "indexed": true,
          "internalType": "uint256",
          "name": "",
          "type": "uint256"
        },
        {
          "indexed": true,
          "internalType": "uint256",
          "name": "",
          "type": "uint256"
        },
        {
          "indexed": true,
          "internalType": "uint256",
          "name": "",
          "type": "uint256"
        }
      ],
      "name": "DiscordTransfer",
      "type": "event"
    },
    {
      "anonymous": false,
      "inputs": [
        {
          "indexed": true,
          "internalType": "uint256",
          "name": "",
          "type": "uint256"
        },
        {
          "indexed": true,
          "internalType": "uint256",
          "name": "",
          "type": "uint256"
        }
      ],
      "name": "Mine",
      "type": "event"
    },
    {
      "anonymous": false,
      "inputs": [
        {
          "indexed": true,
          "internalType": "address",
          "name": "from",
          "type": "address"
        },
        {
          "indexed": true,
          "internalType": "address",
          "name": "to",
          "type": "address"
        },
        {
          "indexed": false,
          "internalType": "uint256",
          "name": "value",
          "type": "uint256"
        }
      ],
      "name": "Transfer",
      "type": "event"
    },
    {
      "inputs": [
        {
          "internalType": "address",
          "name": "owner",
          "type": "address"
        },
        {
          "internalType": "address",
          "name": "spender",
          "type": "address"
        }
      ],
      "name": "allowance",
      "outputs": [
        {
          "internalType": "uint256",
          "name": "",
          "type": "uint256"
        }
      ],
      "stateMutability": "view",
      "type": "function",
      "constant": true
    },
    {
      "inputs": [
        {
          "internalType": "address",
          "name": "spender",
          "type": "address"
        },
        {
          "internalType": "uint256",
          "name": "amount",
          "type": "uint256"
        }
      ],
      "name": "approve",
      "outputs": [
        {
          "internalType": "bool",
          "name": "",
          "type": "bool"
        }
      ],
      "stateMutability": "nonpayable",
      "type": "function"
    },
    {
      "inputs": [
        {
          "internalType": "address",
          "name": "account",
          "type": "address"
        }
      ],
      "name": "balanceOf",
      "outputs": [
        {
          "internalType": "uint256",
          "name": "",
          "type": "uint256"
        }
      ],
      "stateMutability": "view",
      "type": "function",
      "constant": true
    },
    {
      "inputs": [],
      "name": "decimals",
      "outputs": [
        {
          "internalType": "uint8",
          "name": "",
          "type": "uint8"
        }
      ],
      "stateMutability": "view",
      "type": "function",
      "constant": true
    },
    {
      "inputs": [
        {
          "internalType": "address",
          "name": "spender",
          "type": "address"
        },
        {
          "internalType": "uint256",
          "name": "subtractedValue",
          "type": "uint256"
        }
      ],
      "name": "decreaseAllowance",
      "outputs": [
        {
          "internalType": "bool",
          "name": "",
          "type": "bool"
        }
      ],
      "stateMutability": "nonpayable",
      "type": "function"
    },
    {
      "inputs": [
        {
          "internalType": "uint256",
          "name": "",
          "type": "uint256"
        }
      ],
      "name": "discordIdAddressMap",
      "outputs": [
        {
          "internalType": "address",
          "name": "",
          "type": "address"
        }
      ],
      "stateMutability": "view",
      "type": "function",
      "constant": true
    },
    {
      "inputs": [
        {
          "internalType": "address",
          "name": "spender",
          "type": "address"
        },
        {
          "internalType": "uint256",
          "name": "addedValue",
          "type": "uint256"
        }
      ],
      "name": "increaseAllowance",
      "outputs": [
        {
          "internalType": "bool",
          "name": "",
          "type": "bool"
        }
      ],
      "stateMutability": "nonpayable",
      "type": "function"
    },
    {
      "inputs": [],
      "name": "name",
      "outputs": [
        {
          "internalType": "string",
          "name": "",
          "type": "string"
        }
      ],
      "stateMutability": "view",
      "type": "function",
      "constant": true
    },
    {
      "inputs": [],
      "name": "symbol",
      "outputs": [
        {
          "internalType": "string",
          "name": "",
          "type": "string"
        }
      ],
      "stateMutability": "view",
      "type": "function",
      "constant": true
    },
    {
      "inputs": [],
      "name": "totalSupply",
      "outputs": [
        {
          "internalType": "uint256",
          "name": "",
          "type": "uint256"
        }
      ],
      "stateMutability": "view",
      "type": "function",
      "constant": true
    },
    {
      "inputs": [
        {
          "internalType": "address",
          "name": "recipient",
          "type": "address"
        },
        {
          "internalType": "uint256",
          "name": "amount",
          "type": "uint256"
        }
      ],
      "name": "transfer",
      "outputs": [
        {
          "internalType": "bool",
          "name": "",
          "type": "bool"
        }
      ],
      "stateMutability": "nonpayable",
      "type": "function"
    },
    {
      "inputs": [
        {
          "internalType": "address",
          "name": "sender",
          "type": "address"
        },
        {
          "internalType": "address",
          "name": "recipient",
          "type": "address"
        },
        {
          "internalType": "uint256",
          "name": "amount",
          "type": "uint256"
        }
      ],
      "name": "transferFrom",
      "outputs": [
        {
          "internalType": "bool",
          "name": "",
          "type": "bool"
        }
      ],
      "stateMutability": "nonpayable",
      "type": "function"
    },
    {
      "inputs": [
        {
          "internalType": "uint256",
          "name": "discordId",
          "type": "uint256"
        },
        {
          "internalType": "uint256",
          "name": "amount",
          "type": "uint256"
        }
      ],
      "name": "mine",
      "outputs": [],
      "stateMutability": "nonpayable",
      "type": "function"
    },
    {
      "inputs": [
        {
          "internalType": "uint256",
          "name": "from",
          "type": "uint256"
        },
        {
          "internalType": "uint256",
          "name": "to",
          "type": "uint256"
        },
        {
          "internalType": "uint256",
          "name": "amount",
          "type": "uint256"
        }
      ],
      "name": "discordTransfer",
      "outputs": [],
      "stateMutability": "nonpayable",
      "type": "function"
    },
    {
      "inputs": [
        {
          "internalType": "uint256",
          "name": "discordId",
          "type": "uint256"
        }
      ],
      "name": "getBalance",
      "outputs": [
        {
          "internalType": "uint256",
          "name": "",
          "type": "uint256"
        }
      ],
      "stateMutability": "view",
      "type": "function",
      "constant": true
    },
    {
      "inputs": [
        {
          "internalType": "uint256",
          "name": "discordId",
          "type": "uint256"
        }
      ],
      "name": "getWalletAddres",
      "outputs": [
        {
          "internalType": "address",
          "name": "",
          "type": "address"
        }
      ],
      "stateMutability": "view",
      "type": "function",
      "constant": true
    }
  ],
  "bytecode": "0x60806040523480156200001157600080fd5b506040518060400160405280600f81526020017f546f6e67205368696e6720436f696e00000000000000000000000000000000008152506040518060400160405280600381526020017f5454530000000000000000000000000000000000000000000000000000000000815250816003908051906020019062000096929190620000b8565b508060049080519060200190620000af929190620000b8565b505050620001cd565b828054620000c69062000168565b90600052602060002090601f016020900481019282620000ea576000855562000136565b82601f106200010557805160ff191683800117855562000136565b8280016001018555821562000136579182015b828111156200013557825182559160200191906001019062000118565b5b50905062000145919062000149565b5090565b5b80821115620001645760008160009055506001016200014a565b5090565b600060028204905060018216806200018157607f821691505b602082108114156200019857620001976200019e565b5b50919050565b7f4e487b7100000000000000000000000000000000000000000000000000000000600052602260045260246000fd5b611d0d80620001dd6000396000f3fe608060405234801561001057600080fd5b50600436106100ff5760003560e01c8063313ce567116100975780639fb8405e116100665780639fb8405e146102d4578063a457c2d714610304578063a9059cbb14610334578063dd62ed3e14610364576100ff565b8063313ce56714610238578063395093511461025657806370a082311461028657806395d89b41146102b6576100ff565b806315b9695b116100d357806315b9695b1461018a57806318160ddd146101ba5780631e010439146101d857806323b872dd14610208576100ff565b8062d691221461010457806306fdde0314610120578063071e95031461013e578063095ea7b31461015a575b600080fd5b61011e600480360381019061011991906114e2565b610394565b005b610128610583565b6040516101359190611958565b60405180910390f35b610158600480360381019061015391906114a6565b610615565b005b610174600480360381019061016f9190611441565b610768565b604051610181919061193d565b60405180910390f35b6101a4600480360381019061019f919061147d565b610786565b6040516101b19190611922565b60405180910390f35b6101c26107b9565b6040516101cf9190611a9a565b60405180910390f35b6101f260048036038101906101ed919061147d565b6107c3565b6040516101ff9190611a9a565b60405180910390f35b610222600480360381019061021d91906113f2565b6108ad565b60405161022f919061193d565b60405180910390f35b6102406109ae565b60405161024d9190611ab5565b60405180910390f35b610270600480360381019061026b9190611441565b6109b7565b60405161027d919061193d565b60405180910390f35b6102a0600480360381019061029b919061138d565b610a63565b6040516102ad9190611a9a565b60405180910390f35b6102be610aab565b6040516102cb9190611958565b60405180910390f35b6102ee60048036038101906102e9919061147d565b610b3d565b6040516102fb9190611922565b60405180910390f35b61031e60048036038101906103199190611441565b610c1f565b60405161032b919061193d565b60405180910390f35b61034e60048036038101906103499190611441565b610d13565b60405161035b919061193d565b60405180910390f35b61037e600480360381019061037991906113b6565b610d31565b60405161038b9190611a9a565b60405180910390f35b82600073ffffffffffffffffffffffffffffffffffffffff166005600083815260200190815260200160002060009054906101000a900473ffffffffffffffffffffffffffffffffffffffff1673ffffffffffffffffffffffffffffffffffffffff161415610438576040517f08c379a000000000000000000000000000000000000000000000000000000000815260040161042f906119da565b60405180910390fd5b82600073ffffffffffffffffffffffffffffffffffffffff166005600083815260200190815260200160002060009054906101000a900473ffffffffffffffffffffffffffffffffffffffff1673ffffffffffffffffffffffffffffffffffffffff1614156104dc576040517f08c379a00000000000000000000000000000000000000000000000000000000081526004016104d3906119da565b60405180910390fd5b61054d6005600087815260200190815260200160002060009054906101000a900473ffffffffffffffffffffffffffffffffffffffff166005600087815260200190815260200160002060009054906101000a900473ffffffffffffffffffffffffffffffffffffffff1685610db8565b8284867f493ead98bcc0192f5e6cbdd22acb688f3bb0df59afe0774d08a2dadb0dec78a260405160405180910390a45050505050565b60606003805461059290611bfe565b80601f01602080910402602001604051908101604052809291908181526020018280546105be90611bfe565b801561060b5780601f106105e05761010080835404028352916020019161060b565b820191906000526020600020905b8154815290600101906020018083116105ee57829003601f168201915b5050505050905090565b600073ffffffffffffffffffffffffffffffffffffffff166005600084815260200190815260200160002060009054906101000a900473ffffffffffffffffffffffffffffffffffffffff1673ffffffffffffffffffffffffffffffffffffffff1614156106f9574260405160200161068e9190611907565b6040516020818303038152906040528051906020012060601c6005600084815260200190815260200160002060006101000a81548173ffffffffffffffffffffffffffffffffffffffff021916908373ffffffffffffffffffffffffffffffffffffffff1602179055505b6107366005600084815260200190815260200160002060009054906101000a900473ffffffffffffffffffffffffffffffffffffffff1682611037565b80827f1faddc775888fe5a4039b216a112b682bff187895f0f3950c63249c1f7930f3860405160405180910390a35050565b600061077c61077561118b565b8484611193565b6001905092915050565b60056020528060005260406000206000915054906101000a900473ffffffffffffffffffffffffffffffffffffffff1681565b6000600254905090565b600081600073ffffffffffffffffffffffffffffffffffffffff166005600083815260200190815260200160002060009054906101000a900473ffffffffffffffffffffffffffffffffffffffff1673ffffffffffffffffffffffffffffffffffffffff161415610869576040517f08c379a0000000000000000000000000000000000000000000000000000000008152600401610860906119da565b60405180910390fd5b6108a56005600085815260200190815260200160002060009054906101000a900473ffffffffffffffffffffffffffffffffffffffff16610a63565b915050919050565b60006108ba848484610db8565b6000600160008673ffffffffffffffffffffffffffffffffffffffff1673ffffffffffffffffffffffffffffffffffffffff168152602001908152602001600020600061090561118b565b73ffffffffffffffffffffffffffffffffffffffff1673ffffffffffffffffffffffffffffffffffffffff16815260200190815260200160002054905082811015610985576040517f08c379a000000000000000000000000000000000000000000000000000000000815260040161097c906119fa565b60405180910390fd5b6109a28561099161118b565b858461099d9190611b42565b611193565b60019150509392505050565b60006012905090565b6000610a596109c461118b565b8484600160006109d261118b565b73ffffffffffffffffffffffffffffffffffffffff1673ffffffffffffffffffffffffffffffffffffffff16815260200190815260200160002060008873ffffffffffffffffffffffffffffffffffffffff1673ffffffffffffffffffffffffffffffffffffffff16815260200190815260200160002054610a549190611aec565b611193565b6001905092915050565b60008060008373ffffffffffffffffffffffffffffffffffffffff1673ffffffffffffffffffffffffffffffffffffffff168152602001908152602001600020549050919050565b606060048054610aba90611bfe565b80601f0160208091040260200160405190810160405280929190818152602001828054610ae690611bfe565b8015610b335780601f10610b0857610100808354040283529160200191610b33565b820191906000526020600020905b815481529060010190602001808311610b1657829003601f168201915b5050505050905090565b600081600073ffffffffffffffffffffffffffffffffffffffff166005600083815260200190815260200160002060009054906101000a900473ffffffffffffffffffffffffffffffffffffffff1673ffffffffffffffffffffffffffffffffffffffff161415610be3576040517f08c379a0000000000000000000000000000000000000000000000000000000008152600401610bda906119da565b60405180910390fd5b6005600084815260200190815260200160002060009054906101000a900473ffffffffffffffffffffffffffffffffffffffff16915050919050565b60008060016000610c2e61118b565b73ffffffffffffffffffffffffffffffffffffffff1673ffffffffffffffffffffffffffffffffffffffff16815260200190815260200160002060008573ffffffffffffffffffffffffffffffffffffffff1673ffffffffffffffffffffffffffffffffffffffff16815260200190815260200160002054905082811015610ceb576040517f08c379a0000000000000000000000000000000000000000000000000000000008152600401610ce290611a5a565b60405180910390fd5b610d08610cf661118b565b858584610d039190611b42565b611193565b600191505092915050565b6000610d27610d2061118b565b8484610db8565b6001905092915050565b6000600160008473ffffffffffffffffffffffffffffffffffffffff1673ffffffffffffffffffffffffffffffffffffffff16815260200190815260200160002060008373ffffffffffffffffffffffffffffffffffffffff1673ffffffffffffffffffffffffffffffffffffffff16815260200190815260200160002054905092915050565b600073ffffffffffffffffffffffffffffffffffffffff168373ffffffffffffffffffffffffffffffffffffffff161415610e28576040517f08c379a0000000000000000000000000000000000000000000000000000000008152600401610e1f90611a1a565b60405180910390fd5b600073ffffffffffffffffffffffffffffffffffffffff168273ffffffffffffffffffffffffffffffffffffffff161415610e98576040517f08c379a0000000000000000000000000000000000000000000000000000000008152600401610e8f9061197a565b60405180910390fd5b610ea383838361135e565b60008060008573ffffffffffffffffffffffffffffffffffffffff1673ffffffffffffffffffffffffffffffffffffffff16815260200190815260200160002054905081811015610f29576040517f08c379a0000000000000000000000000000000000000000000000000000000008152600401610f20906119ba565b60405180910390fd5b8181610f359190611b42565b6000808673ffffffffffffffffffffffffffffffffffffffff1673ffffffffffffffffffffffffffffffffffffffff16815260200190815260200160002081905550816000808573ffffffffffffffffffffffffffffffffffffffff1673ffffffffffffffffffffffffffffffffffffffff1681526020019081526020016000206000828254610fc59190611aec565b925050819055508273ffffffffffffffffffffffffffffffffffffffff168473ffffffffffffffffffffffffffffffffffffffff167fddf252ad1be2c89b69c2b068fc378daa952ba7f163c4a11628f55a4df523b3ef846040516110299190611a9a565b60405180910390a350505050565b600073ffffffffffffffffffffffffffffffffffffffff168273ffffffffffffffffffffffffffffffffffffffff1614156110a7576040517f08c379a000000000000000000000000000000000000000000000000000000000815260040161109e90611a7a565b60405180910390fd5b6110b36000838361135e565b80600260008282546110c59190611aec565b92505081905550806000808473ffffffffffffffffffffffffffffffffffffffff1673ffffffffffffffffffffffffffffffffffffffff168152602001908152602001600020600082825461111a9190611aec565b925050819055508173ffffffffffffffffffffffffffffffffffffffff16600073ffffffffffffffffffffffffffffffffffffffff167fddf252ad1be2c89b69c2b068fc378daa952ba7f163c4a11628f55a4df523b3ef8360405161117f9190611a9a565b60405180910390a35050565b600033905090565b600073ffffffffffffffffffffffffffffffffffffffff168373ffffffffffffffffffffffffffffffffffffffff161415611203576040517f08c379a00000000000000000000000000000000000000000000000000000000081526004016111fa90611a3a565b60405180910390fd5b600073ffffffffffffffffffffffffffffffffffffffff168273ffffffffffffffffffffffffffffffffffffffff161415611273576040517f08c379a000000000000000000000000000000000000000000000000000000000815260040161126a9061199a565b60405180910390fd5b80600160008573ffffffffffffffffffffffffffffffffffffffff1673ffffffffffffffffffffffffffffffffffffffff16815260200190815260200160002060008473ffffffffffffffffffffffffffffffffffffffff1673ffffffffffffffffffffffffffffffffffffffff168152602001908152602001600020819055508173ffffffffffffffffffffffffffffffffffffffff168373ffffffffffffffffffffffffffffffffffffffff167f8c5be1e5ebec7d5bd14f71427d1e84f3dd0314c0f7b2291e5b200ac8c7c3b925836040516113519190611a9a565b60405180910390a3505050565b505050565b60008135905061137281611ca9565b92915050565b60008135905061138781611cc0565b92915050565b60006020828403121561139f57600080fd5b60006113ad84828501611363565b91505092915050565b600080604083850312156113c957600080fd5b60006113d785828601611363565b92505060206113e885828601611363565b9150509250929050565b60008060006060848603121561140757600080fd5b600061141586828701611363565b935050602061142686828701611363565b925050604061143786828701611378565b9150509250925092565b6000806040838503121561145457600080fd5b600061146285828601611363565b925050602061147385828601611378565b9150509250929050565b60006020828403121561148f57600080fd5b600061149d84828501611378565b91505092915050565b600080604083850312156114b957600080fd5b60006114c785828601611378565b92505060206114d885828601611378565b9150509250929050565b6000806000606084860312156114f757600080fd5b600061150586828701611378565b935050602061151686828701611378565b925050604061152786828701611378565b9150509250925092565b61153a81611b76565b82525050565b61154981611b88565b82525050565b600061155a82611ad0565b6115648185611adb565b9350611574818560208601611bcb565b61157d81611c98565b840191505092915050565b6000611595602383611adb565b91507f45524332303a207472616e7366657220746f20746865207a65726f206164647260008301527f65737300000000000000000000000000000000000000000000000000000000006020830152604082019050919050565b60006115fb602283611adb565b91507f45524332303a20617070726f766520746f20746865207a65726f20616464726560008301527f73730000000000000000000000000000000000000000000000000000000000006020830152604082019050919050565b6000611661602683611adb565b91507f45524332303a207472616e7366657220616d6f756e742065786365656473206260008301527f616c616e636500000000000000000000000000000000000000000000000000006020830152604082019050919050565b60006116c7601283611adb565b91507f54686973206973206e6f742061207573657200000000000000000000000000006000830152602082019050919050565b6000611707602883611adb565b91507f45524332303a207472616e7366657220616d6f756e742065786365656473206160008301527f6c6c6f77616e63650000000000000000000000000000000000000000000000006020830152604082019050919050565b600061176d602583611adb565b91507f45524332303a207472616e736665722066726f6d20746865207a65726f20616460008301527f64726573730000000000000000000000000000000000000000000000000000006020830152604082019050919050565b60006117d3602483611adb565b91507f45524332303a20617070726f76652066726f6d20746865207a65726f2061646460008301527f72657373000000000000000000000000000000000000000000000000000000006020830152604082019050919050565b6000611839602583611adb565b91507f45524332303a2064656372656173656420616c6c6f77616e63652062656c6f7760008301527f207a65726f0000000000000000000000000000000000000000000000000000006020830152604082019050919050565b600061189f601f83611adb565b91507f45524332303a206d696e7420746f20746865207a65726f2061646472657373006000830152602082019050919050565b6118db81611bb4565b82525050565b6118f26118ed82611bb4565b611c30565b82525050565b61190181611bbe565b82525050565b600061191382846118e1565b60208201915081905092915050565b60006020820190506119376000830184611531565b92915050565b60006020820190506119526000830184611540565b92915050565b60006020820190508181036000830152611972818461154f565b905092915050565b6000602082019050818103600083015261199381611588565b9050919050565b600060208201905081810360008301526119b3816115ee565b9050919050565b600060208201905081810360008301526119d381611654565b9050919050565b600060208201905081810360008301526119f3816116ba565b9050919050565b60006020820190508181036000830152611a13816116fa565b9050919050565b60006020820190508181036000830152611a3381611760565b9050919050565b60006020820190508181036000830152611a53816117c6565b9050919050565b60006020820190508181036000830152611a738161182c565b9050919050565b60006020820190508181036000830152611a9381611892565b9050919050565b6000602082019050611aaf60008301846118d2565b92915050565b6000602082019050611aca60008301846118f8565b92915050565b600081519050919050565b600082825260208201905092915050565b6000611af782611bb4565b9150611b0283611bb4565b9250827fffffffffffffffffffffffffffffffffffffffffffffffffffffffffffffffff03821115611b3757611b36611c3a565b5b828201905092915050565b6000611b4d82611bb4565b9150611b5883611bb4565b925082821015611b6b57611b6a611c3a565b5b828203905092915050565b6000611b8182611b94565b9050919050565b60008115159050919050565b600073ffffffffffffffffffffffffffffffffffffffff82169050919050565b6000819050919050565b600060ff82169050919050565b60005b83811015611be9578082015181840152602081019050611bce565b83811115611bf8576000848401525b50505050565b60006002820490506001821680611c1657607f821691505b60208210811415611c2a57611c29611c69565b5b50919050565b6000819050919050565b7f4e487b7100000000000000000000000000000000000000000000000000000000600052601160045260246000fd5b7f4e487b7100000000000000000000000000000000000000000000000000000000600052602260045260246000fd5b6000601f19601f8301169050919050565b611cb281611b76565b8114611cbd57600080fd5b50565b611cc981611bb4565b8114611cd457600080fd5b5056fea2646970667358221220fcb27e714128517c4412d8d756476fb08a1f85598b4ef14085bda3a64c683b3164736f6c63430008000033",
  "immutableReferences": {},
  "source": "pragma solidity ^0.8.0;\r\n\r\nimport \"../node_modules/@openzeppelin/contracts/token/ERC20/ERC20.sol\";\r\n\r\ncontract TTS is ERC20 {\r\n    constructor() ERC20(\"Tong Shing Coin\", \"TTS\") {}\r\n\r\n    event Mine(uint256 indexed, uint256 indexed);\r\n    event DiscordTransfer(uint256 indexed, uint256 indexed, uint256 indexed);\r\n\r\n    mapping(uint256 => address) public discordIdAddressMap;\r\n\r\n    modifier isUser(uint256 discordId) {\r\n        require(\r\n            discordIdAddressMap[discordId] != address(0),\r\n            \"This is not a user\"\r\n        );\r\n        _;\r\n    }\r\n\r\n    function mine(uint256 discordId, uint256 amount) public {\r\n        if (discordIdAddressMap[discordId] == address(0)) {\r\n            discordIdAddressMap[discordId] = address(\r\n                bytes20(keccak256(abi.encodePacked(block.timestamp)))\r\n            );\r\n        }\r\n        _mint(discordIdAddressMap[discordId], amount);\r\n        emit Mine(discordId, amount);\r\n    }\r\n\r\n    function discordTransfer(\r\n        uint256 from,\r\n        uint256 to,\r\n        uint256 amount\r\n    ) public isUser(from) isUser(to) {\r\n        _transfer(discordIdAddressMap[from], discordIdAddressMap[to], amount);\r\n        emit DiscordTransfer(from, to, amount);\r\n    }\r\n\r\n    function getBalance(uint256 discordId)\r\n        public\r\n        view\r\n        isUser(discordId)\r\n        returns (uint256)\r\n    {\r\n        return balanceOf(discordIdAddressMap[discordId]);\r\n    }\r\n\r\n    function getWalletAddres(uint256 discordId)\r\n        public\r\n        view\r\n        isUser(discordId)\r\n        returns (address)\r\n    {\r\n        return discordIdAddressMap[discordId];\r\n    }\r\n}\r\n",
  "sourcePath": "C:/Users/123/Desktop/playground/gobot/smartContract/contracts/TTS.sol",
  "compiler": {
    "name": "solc",
    "version": "0.8.0+commit.c7dfd78e.Emscripten.clang"
  },
  "schemaVersion": "3.3.4",
  "updatedAt": "2021-04-04T08:18:10.631Z",
  "networkType": "ethereum",
  "devdoc": {
    "kind": "dev",
    "methods": {
      "allowance(address,address)": {
        "details": "See {IERC20-allowance}."
      },
      "approve(address,uint256)": {
        "details": "See {IERC20-approve}. Requirements: - `spender` cannot be the zero address."
      },
      "balanceOf(address)": {
        "details": "See {IERC20-balanceOf}."
      },
      "decimals()": {
        "details": "Returns the number of decimals used to get its user representation. For example, if `decimals` equals `2`, a balance of `505` tokens should be displayed to a user as `5,05` (`505 / 10 ** 2`). Tokens usually opt for a value of 18, imitating the relationship between Ether and Wei. This is the value {ERC20} uses, unless this function is overloaded; NOTE: This information is only used for _display_ purposes: it in no way affects any of the arithmetic of the contract, including {IERC20-balanceOf} and {IERC20-transfer}."
      },
      "decreaseAllowance(address,uint256)": {
        "details": "Atomically decreases the allowance granted to `spender` by the caller. This is an alternative to {approve} that can be used as a mitigation for problems described in {IERC20-approve}. Emits an {Approval} event indicating the updated allowance. Requirements: - `spender` cannot be the zero address. - `spender` must have allowance for the caller of at least `subtractedValue`."
      },
      "increaseAllowance(address,uint256)": {
        "details": "Atomically increases the allowance granted to `spender` by the caller. This is an alternative to {approve} that can be used as a mitigation for problems described in {IERC20-approve}. Emits an {Approval} event indicating the updated allowance. Requirements: - `spender` cannot be the zero address."
      },
      "name()": {
        "details": "Returns the name of the token."
      },
      "symbol()": {
        "details": "Returns the symbol of the token, usually a shorter version of the name."
      },
      "totalSupply()": {
        "details": "See {IERC20-totalSupply}."
      },
      "transfer(address,uint256)": {
        "details": "See {IERC20-transfer}. Requirements: - `recipient` cannot be the zero address. - the caller must have a balance of at least `amount`."
      },
      "transferFrom(address,address,uint256)": {
        "details": "See {IERC20-transferFrom}. Emits an {Approval} event indicating the updated allowance. This is not required by the EIP. See the note at the beginning of {ERC20}. Requirements: - `sender` and `recipient` cannot be the zero address. - `sender` must have a balance of at least `amount`. - the caller must have allowance for ``sender``'s tokens of at least `amount`."
      }
    },
    "version": 1
  },
  "userdoc": {
    "kind": "user",
    "methods": {},
    "version": 1
  }
}