{
  "contractName": "TTS",
  "abi": [
    {
      "anonymous": false,
      "inputs": [
        {
          "indexed": true,
          "internalType": "address",
          "name": "owner",
          "type": "address"
        },
        {
          "indexed": true,
          "internalType": "address",
          "name": "spender",
          "type": "address"
        },
        {
          "indexed": false,
          "internalType": "uint256",
          "name": "value",
          "type": "uint256"
        }
      ],
      "name": "Approval",
      "type": "event"
    },
    {
      "anonymous": false,
      "inputs": [
        {
          "indexed": true,
          "internalType": "uint256",
          "name": "",
          "type": "uint256"
        },
        {
          "indexed": true,
          "internalType": "address",
          "name": "",
          "type": "address"
        }
      ],
      "name": "ChangeWalletAddress",
      "type": "event"
    },
    {
      "anonymous": false,
      "inputs": [
        {
          "indexed": true,
          "internalType": "uint256",
          "name": "",
          "type": "uint256"
        },
        {
          "indexed": true,
          "internalType": "uint256",
          "name": "",
          "type": "uint256"
        },
        {
          "indexed": true,
          "internalType": "uint256",
          "name": "",
          "type": "uint256"
        }
      ],
      "name": "DiscordTransfer",
      "type": "event"
    },
    {
      "anonymous": false,
      "inputs": [
        {
          "indexed": true,
          "internalType": "uint256",
          "name": "",
          "type": "uint256"
        },
        {
          "indexed": true,
          "internalType": "uint256",
          "name": "",
          "type": "uint256"
        }
      ],
      "name": "Mine",
      "type": "event"
    },
    {
      "anonymous": false,
      "inputs": [
        {
          "indexed": true,
          "internalType": "uint256",
          "name": "",
          "type": "uint256"
        }
      ],
      "name": "Register",
      "type": "event"
    },
    {
      "anonymous": false,
      "inputs": [
        {
          "indexed": true,
          "internalType": "address",
          "name": "from",
          "type": "address"
        },
        {
          "indexed": true,
          "internalType": "address",
          "name": "to",
          "type": "address"
        },
        {
          "indexed": false,
          "internalType": "uint256",
          "name": "value",
          "type": "uint256"
        }
      ],
      "name": "Transfer",
      "type": "event"
    },
    {
      "inputs": [
        {
          "internalType": "address",
          "name": "owner",
          "type": "address"
        },
        {
          "internalType": "address",
          "name": "spender",
          "type": "address"
        }
      ],
      "name": "allowance",
      "outputs": [
        {
          "internalType": "uint256",
          "name": "",
          "type": "uint256"
        }
      ],
      "stateMutability": "view",
      "type": "function",
      "constant": true
    },
    {
      "inputs": [
        {
          "internalType": "address",
          "name": "spender",
          "type": "address"
        },
        {
          "internalType": "uint256",
          "name": "amount",
          "type": "uint256"
        }
      ],
      "name": "approve",
      "outputs": [
        {
          "internalType": "bool",
          "name": "",
          "type": "bool"
        }
      ],
      "stateMutability": "nonpayable",
      "type": "function"
    },
    {
      "inputs": [
        {
          "internalType": "address",
          "name": "account",
          "type": "address"
        }
      ],
      "name": "balanceOf",
      "outputs": [
        {
          "internalType": "uint256",
          "name": "",
          "type": "uint256"
        }
      ],
      "stateMutability": "view",
      "type": "function",
      "constant": true
    },
    {
      "inputs": [],
      "name": "decimals",
      "outputs": [
        {
          "internalType": "uint8",
          "name": "",
          "type": "uint8"
        }
      ],
      "stateMutability": "view",
      "type": "function",
      "constant": true
    },
    {
      "inputs": [
        {
          "internalType": "address",
          "name": "spender",
          "type": "address"
        },
        {
          "internalType": "uint256",
          "name": "subtractedValue",
          "type": "uint256"
        }
      ],
      "name": "decreaseAllowance",
      "outputs": [
        {
          "internalType": "bool",
          "name": "",
          "type": "bool"
        }
      ],
      "stateMutability": "nonpayable",
      "type": "function"
    },
    {
      "inputs": [
        {
          "internalType": "uint256",
          "name": "",
          "type": "uint256"
        }
      ],
      "name": "discordIdAddressMap",
      "outputs": [
        {
          "internalType": "address",
          "name": "",
          "type": "address"
        }
      ],
      "stateMutability": "view",
      "type": "function",
      "constant": true
    },
    {
      "inputs": [
        {
          "internalType": "uint256",
          "name": "",
          "type": "uint256"
        }
      ],
      "name": "discordIdPrivateKeyMap",
      "outputs": [
        {
          "internalType": "string",
          "name": "",
          "type": "string"
        }
      ],
      "stateMutability": "view",
      "type": "function",
      "constant": true
    },
    {
      "inputs": [
        {
          "internalType": "address",
          "name": "spender",
          "type": "address"
        },
        {
          "internalType": "uint256",
          "name": "addedValue",
          "type": "uint256"
        }
      ],
      "name": "increaseAllowance",
      "outputs": [
        {
          "internalType": "bool",
          "name": "",
          "type": "bool"
        }
      ],
      "stateMutability": "nonpayable",
      "type": "function"
    },
    {
      "inputs": [],
      "name": "name",
      "outputs": [
        {
          "internalType": "string",
          "name": "",
          "type": "string"
        }
      ],
      "stateMutability": "view",
      "type": "function",
      "constant": true
    },
    {
      "inputs": [],
      "name": "symbol",
      "outputs": [
        {
          "internalType": "string",
          "name": "",
          "type": "string"
        }
      ],
      "stateMutability": "view",
      "type": "function",
      "constant": true
    },
    {
      "inputs": [],
      "name": "totalSupply",
      "outputs": [
        {
          "internalType": "uint256",
          "name": "",
          "type": "uint256"
        }
      ],
      "stateMutability": "view",
      "type": "function",
      "constant": true
    },
    {
      "inputs": [
        {
          "internalType": "address",
          "name": "recipient",
          "type": "address"
        },
        {
          "internalType": "uint256",
          "name": "amount",
          "type": "uint256"
        }
      ],
      "name": "transfer",
      "outputs": [
        {
          "internalType": "bool",
          "name": "",
          "type": "bool"
        }
      ],
      "stateMutability": "nonpayable",
      "type": "function"
    },
    {
      "inputs": [
        {
          "internalType": "address",
          "name": "sender",
          "type": "address"
        },
        {
          "internalType": "address",
          "name": "recipient",
          "type": "address"
        },
        {
          "internalType": "uint256",
          "name": "amount",
          "type": "uint256"
        }
      ],
      "name": "transferFrom",
      "outputs": [
        {
          "internalType": "bool",
          "name": "",
          "type": "bool"
        }
      ],
      "stateMutability": "nonpayable",
      "type": "function"
    },
    {
      "inputs": [
        {
          "internalType": "string",
          "name": "name_",
          "type": "string"
        },
        {
          "internalType": "string",
          "name": "symbol_",
          "type": "string"
        }
      ],
      "name": "initialize",
      "outputs": [],
      "stateMutability": "nonpayable",
      "type": "function"
    },
    {
      "inputs": [
        {
          "internalType": "uint256",
          "name": "discordId",
          "type": "uint256"
        },
        {
          "internalType": "string",
          "name": "privateKey",
          "type": "string"
        },
        {
          "internalType": "address",
          "name": "addr",
          "type": "address"
        }
      ],
      "name": "register",
      "outputs": [],
      "stateMutability": "nonpayable",
      "type": "function"
    },
    {
      "inputs": [
        {
          "internalType": "uint256",
          "name": "discordId",
          "type": "uint256"
        },
        {
          "internalType": "uint256",
          "name": "amount",
          "type": "uint256"
        }
      ],
      "name": "mine",
      "outputs": [],
      "stateMutability": "nonpayable",
      "type": "function"
    },
    {
      "inputs": [
        {
          "internalType": "uint256",
          "name": "from",
          "type": "uint256"
        },
        {
          "internalType": "uint256",
          "name": "to",
          "type": "uint256"
        },
        {
          "internalType": "uint256",
          "name": "amount",
          "type": "uint256"
        }
      ],
      "name": "discordTransfer",
      "outputs": [],
      "stateMutability": "nonpayable",
      "type": "function"
    },
    {
      "inputs": [
        {
          "internalType": "uint256",
          "name": "discordId",
          "type": "uint256"
        }
      ],
      "name": "getBalance",
      "outputs": [
        {
          "internalType": "uint256",
          "name": "",
          "type": "uint256"
        }
      ],
      "stateMutability": "view",
      "type": "function",
      "constant": true
    },
    {
      "inputs": [
        {
          "internalType": "uint256",
          "name": "discordId",
          "type": "uint256"
        }
      ],
      "name": "getWalletAddres",
      "outputs": [
        {
          "internalType": "address",
          "name": "",
          "type": "address"
        }
      ],
      "stateMutability": "view",
      "type": "function",
      "constant": true
    },
    {
      "inputs": [
        {
          "internalType": "uint256",
          "name": "discordId",
          "type": "uint256"
        }
      ],
      "name": "getPrivateKey",
      "outputs": [
        {
          "internalType": "string",
          "name": "",
          "type": "string"
        }
      ],
      "stateMutability": "view",
      "type": "function",
      "constant": true
    },
    {
      "inputs": [
        {
          "internalType": "uint256",
          "name": "discordId",
          "type": "uint256"
        },
        {
          "internalType": "address",
          "name": "walletAddress",
          "type": "address"
        }
      ],
      "name": "setWalletAddress",
      "outputs": [],
      "stateMutability": "nonpayable",
      "type": "function"
    },
    {
      "inputs": [],
      "name": "test",
      "outputs": [],
      "stateMutability": "pure",
      "type": "function",
      "constant": true
    }
  ],
  "bytecode": "0x608060405234801561001057600080fd5b5061291b806100206000396000f3fe608060405234801561001057600080fd5b50600436106101415760003560e01c80634cd88b76116100b85780639fb8405e1161007c5780639fb8405e1461039a578063a457c2d7146103ca578063a9059cbb146103fa578063bd0545eb1461042a578063dd62ed3e1461045a578063f8a8fd6d1461048a57610141565b80634cd88b76146102f8578063601219b71461031457806370a082311461033057806381238c8e1461036057806395d89b411461037c57610141565b806315b9695b1161010a57806315b9695b146101fc57806318160ddd1461022c5780631e0104391461024a57806323b872dd1461027a578063313ce567146102aa57806339509351146102c857610141565b8062d691221461014657806306fdde0314610162578063071e950314610180578063095ea7b31461019c5780630d0b0d30146101cc575b600080fd5b610160600480360381019061015b9190611fa7565b610494565b005b61016a610683565b6040516101779190612491565b60405180910390f35b61019a60048036038101906101959190611f6b565b610715565b005b6101b660048036038101906101b19190611df7565b610829565b6040516101c39190612476565b60405180910390f35b6101e660048036038101906101e19190611e9f565b610847565b6040516101f39190612491565b60405180910390f35b61021660048036038101906102119190611e9f565b610991565b604051610223919061245b565b60405180910390f35b6102346109c4565b6040516102419190612613565b60405180910390f35b610264600480360381019061025f9190611e9f565b6109ce565b6040516102719190612613565b60405180910390f35b610294600480360381019061028f9190611da8565b610ab8565b6040516102a19190612476565b60405180910390f35b6102b2610bb9565b6040516102bf919061262e565b60405180910390f35b6102e260048036038101906102dd9190611df7565b610bc2565b6040516102ef9190612476565b60405180910390f35b610312600480360381019061030d9190611e33565b610c6e565b005b61032e60048036038101906103299190611f04565b610d53565b005b61034a60048036038101906103459190611d43565b610ea1565b6040516103579190612613565b60405180910390f35b61037a60048036038101906103759190611ec8565b610eea565b005b610384610fe1565b6040516103919190612491565b60405180910390f35b6103b460048036038101906103af9190611e9f565b611073565b6040516103c1919061245b565b60405180910390f35b6103e460048036038101906103df9190611df7565b611155565b6040516103f19190612476565b60405180910390f35b610414600480360381019061040f9190611df7565b611249565b6040516104219190612476565b60405180910390f35b610444600480360381019061043f9190611e9f565b611267565b6040516104519190612491565b60405180910390f35b610474600480360381019061046f9190611d6c565b611307565b6040516104819190612613565b60405180910390f35b61049261138e565b005b82600073ffffffffffffffffffffffffffffffffffffffff166065600083815260200190815260200160002060009054906101000a900473ffffffffffffffffffffffffffffffffffffffff1673ffffffffffffffffffffffffffffffffffffffff161415610538576040517f08c379a000000000000000000000000000000000000000000000000000000000815260040161052f90612533565b60405180910390fd5b82600073ffffffffffffffffffffffffffffffffffffffff166065600083815260200190815260200160002060009054906101000a900473ffffffffffffffffffffffffffffffffffffffff1673ffffffffffffffffffffffffffffffffffffffff1614156105dc576040517f08c379a00000000000000000000000000000000000000000000000000000000081526004016105d390612533565b60405180910390fd5b61064d6065600087815260200190815260200160002060009054906101000a900473ffffffffffffffffffffffffffffffffffffffff166065600087815260200190815260200160002060009054906101000a900473ffffffffffffffffffffffffffffffffffffffff1685611390565b8284867f493ead98bcc0192f5e6cbdd22acb688f3bb0df59afe0774d08a2dadb0dec78a260405160405180910390a45050505050565b606060368054610692906127e7565b80601f01602080910402602001604051908101604052809291908181526020018280546106be906127e7565b801561070b5780601f106106e05761010080835404028352916020019161070b565b820191906000526020600020905b8154815290600101906020018083116106ee57829003601f168201915b5050505050905090565b81600073ffffffffffffffffffffffffffffffffffffffff166065600083815260200190815260200160002060009054906101000a900473ffffffffffffffffffffffffffffffffffffffff1673ffffffffffffffffffffffffffffffffffffffff1614156107b9576040517f08c379a00000000000000000000000000000000000000000000000000000000081526004016107b090612533565b60405180910390fd5b6107f66065600085815260200190815260200160002060009054906101000a900473ffffffffffffffffffffffffffffffffffffffff1683611612565b81837f1faddc775888fe5a4039b216a112b682bff187895f0f3950c63249c1f7930f3860405160405180910390a3505050565b600061083d610836611767565b848461176f565b6001905092915050565b606081600073ffffffffffffffffffffffffffffffffffffffff166065600083815260200190815260200160002060009054906101000a900473ffffffffffffffffffffffffffffffffffffffff1673ffffffffffffffffffffffffffffffffffffffff1614156108ed576040517f08c379a00000000000000000000000000000000000000000000000000000000081526004016108e490612533565b60405180910390fd5b60666000848152602001908152602001600020805461090b906127e7565b80601f0160208091040260200160405190810160405280929190818152602001828054610937906127e7565b80156109845780601f1061095957610100808354040283529160200191610984565b820191906000526020600020905b81548152906001019060200180831161096757829003601f168201915b5050505050915050919050565b60656020528060005260406000206000915054906101000a900473ffffffffffffffffffffffffffffffffffffffff1681565b6000603554905090565b600081600073ffffffffffffffffffffffffffffffffffffffff166065600083815260200190815260200160002060009054906101000a900473ffffffffffffffffffffffffffffffffffffffff1673ffffffffffffffffffffffffffffffffffffffff161415610a74576040517f08c379a0000000000000000000000000000000000000000000000000000000008152600401610a6b90612533565b60405180910390fd5b610ab06065600085815260200190815260200160002060009054906101000a900473ffffffffffffffffffffffffffffffffffffffff16610ea1565b915050919050565b6000610ac5848484611390565b6000603460008673ffffffffffffffffffffffffffffffffffffffff1673ffffffffffffffffffffffffffffffffffffffff1681526020019081526020016000206000610b10611767565b73ffffffffffffffffffffffffffffffffffffffff1673ffffffffffffffffffffffffffffffffffffffff16815260200190815260200160002054905082811015610b90576040517f08c379a0000000000000000000000000000000000000000000000000000000008152600401610b8790612573565b60405180910390fd5b610bad85610b9c611767565b8584610ba8919061271c565b61176f565b60019150509392505050565b60006012905090565b6000610c64610bcf611767565b848460346000610bdd611767565b73ffffffffffffffffffffffffffffffffffffffff1673ffffffffffffffffffffffffffffffffffffffff16815260200190815260200160002060008873ffffffffffffffffffffffffffffffffffffffff1673ffffffffffffffffffffffffffffffffffffffff16815260200190815260200160002054610c5f91906126c6565b61176f565b6001905092915050565b600060019054906101000a900460ff1680610c94575060008054906101000a900460ff16155b610cd3576040517f08c379a0000000000000000000000000000000000000000000000000000000008152600401610cca90612553565b60405180910390fd5b60008060019054906101000a900460ff161590508015610d23576001600060016101000a81548160ff02191690831515021790555060016000806101000a81548160ff0219169083151502179055505b610d2d838361193a565b8015610d4e5760008060016101000a81548160ff0219169083151502179055505b505050565b600073ffffffffffffffffffffffffffffffffffffffff166065600085815260200190815260200160002060009054906101000a900473ffffffffffffffffffffffffffffffffffffffff1673ffffffffffffffffffffffffffffffffffffffff1614610df5576040517f08c379a0000000000000000000000000000000000000000000000000000000008152600401610dec906124f3565b60405180910390fd5b806065600085815260200190815260200160002060006101000a81548173ffffffffffffffffffffffffffffffffffffffff021916908373ffffffffffffffffffffffffffffffffffffffff16021790555081606660008581526020019081526020016000209080519060200190610e6e929190611c0e565b50827fa18caf81bead264fa1872fa13294e57db41fcbee753dce1d88d33ef5f595a29d60405160405180910390a2505050565b6000603360008373ffffffffffffffffffffffffffffffffffffffff1673ffffffffffffffffffffffffffffffffffffffff168152602001908152602001600020549050919050565b806065600084815260200190815260200160002060006101000a81548173ffffffffffffffffffffffffffffffffffffffff021916908373ffffffffffffffffffffffffffffffffffffffff1602179055506040518060400160405280601381526020017f5573657220646566696e65642077616c6c657400000000000000000000000000815250606660008481526020019081526020016000209080519060200190610f98929190611c0e565b508073ffffffffffffffffffffffffffffffffffffffff16827fcc9548e8b845a7a879c83b5c9f0ee8796e3614d0f8370cb82a440133cddc1f9360405160405180910390a35050565b606060378054610ff0906127e7565b80601f016020809104026020016040519081016040528092919081815260200182805461101c906127e7565b80156110695780601f1061103e57610100808354040283529160200191611069565b820191906000526020600020905b81548152906001019060200180831161104c57829003601f168201915b5050505050905090565b600081600073ffffffffffffffffffffffffffffffffffffffff166065600083815260200190815260200160002060009054906101000a900473ffffffffffffffffffffffffffffffffffffffff1673ffffffffffffffffffffffffffffffffffffffff161415611119576040517f08c379a000000000000000000000000000000000000000000000000000000000815260040161111090612533565b60405180910390fd5b6065600084815260200190815260200160002060009054906101000a900473ffffffffffffffffffffffffffffffffffffffff16915050919050565b60008060346000611164611767565b73ffffffffffffffffffffffffffffffffffffffff1673ffffffffffffffffffffffffffffffffffffffff16815260200190815260200160002060008573ffffffffffffffffffffffffffffffffffffffff1673ffffffffffffffffffffffffffffffffffffffff16815260200190815260200160002054905082811015611221576040517f08c379a0000000000000000000000000000000000000000000000000000000008152600401611218906125d3565b60405180910390fd5b61123e61122c611767565b858584611239919061271c565b61176f565b600191505092915050565b600061125d611256611767565b8484611390565b6001905092915050565b60666020528060005260406000206000915090508054611286906127e7565b80601f01602080910402602001604051908101604052809291908181526020018280546112b2906127e7565b80156112ff5780601f106112d4576101008083540402835291602001916112ff565b820191906000526020600020905b8154815290600101906020018083116112e257829003601f168201915b505050505081565b6000603460008473ffffffffffffffffffffffffffffffffffffffff1673ffffffffffffffffffffffffffffffffffffffff16815260200190815260200160002060008373ffffffffffffffffffffffffffffffffffffffff1673ffffffffffffffffffffffffffffffffffffffff16815260200190815260200160002054905092915050565b565b600073ffffffffffffffffffffffffffffffffffffffff168373ffffffffffffffffffffffffffffffffffffffff161415611400576040517f08c379a00000000000000000000000000000000000000000000000000000000081526004016113f790612593565b60405180910390fd5b600073ffffffffffffffffffffffffffffffffffffffff168273ffffffffffffffffffffffffffffffffffffffff161415611470576040517f08c379a0000000000000000000000000000000000000000000000000000000008152600401611467906124b3565b60405180910390fd5b61147b838383611a27565b6000603360008573ffffffffffffffffffffffffffffffffffffffff1673ffffffffffffffffffffffffffffffffffffffff16815260200190815260200160002054905081811015611502576040517f08c379a00000000000000000000000000000000000000000000000000000000081526004016114f990612513565b60405180910390fd5b818161150e919061271c565b603360008673ffffffffffffffffffffffffffffffffffffffff1673ffffffffffffffffffffffffffffffffffffffff1681526020019081526020016000208190555081603360008573ffffffffffffffffffffffffffffffffffffffff1673ffffffffffffffffffffffffffffffffffffffff16815260200190815260200160002060008282546115a091906126c6565b925050819055508273ffffffffffffffffffffffffffffffffffffffff168473ffffffffffffffffffffffffffffffffffffffff167fddf252ad1be2c89b69c2b068fc378daa952ba7f163c4a11628f55a4df523b3ef846040516116049190612613565b60405180910390a350505050565b600073ffffffffffffffffffffffffffffffffffffffff168273ffffffffffffffffffffffffffffffffffffffff161415611682576040517f08c379a0000000000000000000000000000000000000000000000000000000008152600401611679906125f3565b60405180910390fd5b61168e60008383611a27565b80603560008282546116a091906126c6565b9250508190555080603360008473ffffffffffffffffffffffffffffffffffffffff1673ffffffffffffffffffffffffffffffffffffffff16815260200190815260200160002060008282546116f691906126c6565b925050819055508173ffffffffffffffffffffffffffffffffffffffff16600073ffffffffffffffffffffffffffffffffffffffff167fddf252ad1be2c89b69c2b068fc378daa952ba7f163c4a11628f55a4df523b3ef8360405161175b9190612613565b60405180910390a35050565b600033905090565b600073ffffffffffffffffffffffffffffffffffffffff168373ffffffffffffffffffffffffffffffffffffffff1614156117df576040517f08c379a00000000000000000000000000000000000000000000000000000000081526004016117d6906125b3565b60405180910390fd5b600073ffffffffffffffffffffffffffffffffffffffff168273ffffffffffffffffffffffffffffffffffffffff16141561184f576040517f08c379a0000000000000000000000000000000000000000000000000000000008152600401611846906124d3565b60405180910390fd5b80603460008573ffffffffffffffffffffffffffffffffffffffff1673ffffffffffffffffffffffffffffffffffffffff16815260200190815260200160002060008473ffffffffffffffffffffffffffffffffffffffff1673ffffffffffffffffffffffffffffffffffffffff168152602001908152602001600020819055508173ffffffffffffffffffffffffffffffffffffffff168373ffffffffffffffffffffffffffffffffffffffff167f8c5be1e5ebec7d5bd14f71427d1e84f3dd0314c0f7b2291e5b200ac8c7c3b9258360405161192d9190612613565b60405180910390a3505050565b600060019054906101000a900460ff1680611960575060008054906101000a900460ff16155b61199f576040517f08c379a000000000000000000000000000000000000000000000000000000000815260040161199690612553565b60405180910390fd5b60008060019054906101000a900460ff1615905080156119ef576001600060016101000a81548160ff02191690831515021790555060016000806101000a81548160ff0219169083151502179055505b6119f7611a2c565b611a018383611b05565b8015611a225760008060016101000a81548160ff0219169083151502179055505b505050565b505050565b600060019054906101000a900460ff1680611a52575060008054906101000a900460ff16155b611a91576040517f08c379a0000000000000000000000000000000000000000000000000000000008152600401611a8890612553565b60405180910390fd5b60008060019054906101000a900460ff161590508015611ae1576001600060016101000a81548160ff02191690831515021790555060016000806101000a81548160ff0219169083151502179055505b8015611b025760008060016101000a81548160ff0219169083151502179055505b50565b600060019054906101000a900460ff1680611b2b575060008054906101000a900460ff16155b611b6a576040517f08c379a0000000000000000000000000000000000000000000000000000000008152600401611b6190612553565b60405180910390fd5b60008060019054906101000a900460ff161590508015611bba576001600060016101000a81548160ff02191690831515021790555060016000806101000a81548160ff0219169083151502179055505b8260369080519060200190611bd0929190611c0e565b508160379080519060200190611be7929190611c0e565b508015611c095760008060016101000a81548160ff0219169083151502179055505b505050565b828054611c1a906127e7565b90600052602060002090601f016020900481019282611c3c5760008555611c83565b82601f10611c5557805160ff1916838001178555611c83565b82800160010185558215611c83579182015b82811115611c82578251825591602001919060010190611c67565b5b509050611c909190611c94565b5090565b5b80821115611cad576000816000905550600101611c95565b5090565b6000611cc4611cbf8461267a565b612649565b905082815260208101848484011115611cdc57600080fd5b611ce78482856127a5565b509392505050565b600081359050611cfe816128b7565b92915050565b600082601f830112611d1557600080fd5b8135611d25848260208601611cb1565b91505092915050565b600081359050611d3d816128ce565b92915050565b600060208284031215611d5557600080fd5b6000611d6384828501611cef565b91505092915050565b60008060408385031215611d7f57600080fd5b6000611d8d85828601611cef565b9250506020611d9e85828601611cef565b9150509250929050565b600080600060608486031215611dbd57600080fd5b6000611dcb86828701611cef565b9350506020611ddc86828701611cef565b9250506040611ded86828701611d2e565b9150509250925092565b60008060408385031215611e0a57600080fd5b6000611e1885828601611cef565b9250506020611e2985828601611d2e565b9150509250929050565b60008060408385031215611e4657600080fd5b600083013567ffffffffffffffff811115611e6057600080fd5b611e6c85828601611d04565b925050602083013567ffffffffffffffff811115611e8957600080fd5b611e9585828601611d04565b9150509250929050565b600060208284031215611eb157600080fd5b6000611ebf84828501611d2e565b91505092915050565b60008060408385031215611edb57600080fd5b6000611ee985828601611d2e565b9250506020611efa85828601611cef565b9150509250929050565b600080600060608486031215611f1957600080fd5b6000611f2786828701611d2e565b935050602084013567ffffffffffffffff811115611f4457600080fd5b611f5086828701611d04565b9250506040611f6186828701611cef565b9150509250925092565b60008060408385031215611f7e57600080fd5b6000611f8c85828601611d2e565b9250506020611f9d85828601611d2e565b9150509250929050565b600080600060608486031215611fbc57600080fd5b6000611fca86828701611d2e565b9350506020611fdb86828701611d2e565b9250506040611fec86828701611d2e565b9150509250925092565b611fff81612750565b82525050565b61200e81612762565b82525050565b600061201f826126aa565b61202981856126b5565b93506120398185602086016127b4565b612042816128a6565b840191505092915050565b600061205a6023836126b5565b91507f45524332303a207472616e7366657220746f20746865207a65726f206164647260008301527f65737300000000000000000000000000000000000000000000000000000000006020830152604082019050919050565b60006120c06022836126b5565b91507f45524332303a20617070726f766520746f20746865207a65726f20616464726560008301527f73730000000000000000000000000000000000000000000000000000000000006020830152604082019050919050565b60006121266012836126b5565b91507f616c7265616479207265676973746572656400000000000000000000000000006000830152602082019050919050565b60006121666026836126b5565b91507f45524332303a207472616e7366657220616d6f756e742065786365656473206260008301527f616c616e636500000000000000000000000000000000000000000000000000006020830152604082019050919050565b60006121cc6012836126b5565b91507f54686973206973206e6f742061207573657200000000000000000000000000006000830152602082019050919050565b600061220c602e836126b5565b91507f496e697469616c697a61626c653a20636f6e747261637420697320616c72656160008301527f647920696e697469616c697a65640000000000000000000000000000000000006020830152604082019050919050565b60006122726028836126b5565b91507f45524332303a207472616e7366657220616d6f756e742065786365656473206160008301527f6c6c6f77616e63650000000000000000000000000000000000000000000000006020830152604082019050919050565b60006122d86025836126b5565b91507f45524332303a207472616e736665722066726f6d20746865207a65726f20616460008301527f64726573730000000000000000000000000000000000000000000000000000006020830152604082019050919050565b600061233e6024836126b5565b91507f45524332303a20617070726f76652066726f6d20746865207a65726f2061646460008301527f72657373000000000000000000000000000000000000000000000000000000006020830152604082019050919050565b60006123a46025836126b5565b91507f45524332303a2064656372656173656420616c6c6f77616e63652062656c6f7760008301527f207a65726f0000000000000000000000000000000000000000000000000000006020830152604082019050919050565b600061240a601f836126b5565b91507f45524332303a206d696e7420746f20746865207a65726f2061646472657373006000830152602082019050919050565b6124468161278e565b82525050565b61245581612798565b82525050565b60006020820190506124706000830184611ff6565b92915050565b600060208201905061248b6000830184612005565b92915050565b600060208201905081810360008301526124ab8184612014565b905092915050565b600060208201905081810360008301526124cc8161204d565b9050919050565b600060208201905081810360008301526124ec816120b3565b9050919050565b6000602082019050818103600083015261250c81612119565b9050919050565b6000602082019050818103600083015261252c81612159565b9050919050565b6000602082019050818103600083015261254c816121bf565b9050919050565b6000602082019050818103600083015261256c816121ff565b9050919050565b6000602082019050818103600083015261258c81612265565b9050919050565b600060208201905081810360008301526125ac816122cb565b9050919050565b600060208201905081810360008301526125cc81612331565b9050919050565b600060208201905081810360008301526125ec81612397565b9050919050565b6000602082019050818103600083015261260c816123fd565b9050919050565b6000602082019050612628600083018461243d565b92915050565b6000602082019050612643600083018461244c565b92915050565b6000604051905081810181811067ffffffffffffffff821117156126705761266f612877565b5b8060405250919050565b600067ffffffffffffffff82111561269557612694612877565b5b601f19601f8301169050602081019050919050565b600081519050919050565b600082825260208201905092915050565b60006126d18261278e565b91506126dc8361278e565b9250827fffffffffffffffffffffffffffffffffffffffffffffffffffffffffffffffff0382111561271157612710612819565b5b828201905092915050565b60006127278261278e565b91506127328361278e565b92508282101561274557612744612819565b5b828203905092915050565b600061275b8261276e565b9050919050565b60008115159050919050565b600073ffffffffffffffffffffffffffffffffffffffff82169050919050565b6000819050919050565b600060ff82169050919050565b82818337600083830152505050565b60005b838110156127d25780820151818401526020810190506127b7565b838111156127e1576000848401525b50505050565b600060028204905060018216806127ff57607f821691505b6020821081141561281357612812612848565b5b50919050565b7f4e487b7100000000000000000000000000000000000000000000000000000000600052601160045260246000fd5b7f4e487b7100000000000000000000000000000000000000000000000000000000600052602260045260246000fd5b7f4e487b7100000000000000000000000000000000000000000000000000000000600052604160045260246000fd5b6000601f19601f8301169050919050565b6128c081612750565b81146128cb57600080fd5b50565b6128d78161278e565b81146128e257600080fd5b5056fea264697066735822122095b352431ec2828ddd3ef858416f69e8dadcdaac3b45b72dfbc935c00ef84b4464736f6c63430008000033",
  "immutableReferences": {},
  "source": "pragma solidity ^0.8.0;\r\n\r\nimport \"../node_modules/@openzeppelin/contracts-upgradeable/token/ERC20/ERC20Upgradeable.sol\";\r\nimport \"../node_modules/@openzeppelin/contracts-upgradeable/proxy/utils/Initializable.sol\";\r\n\r\ncontract TTS is Initializable, ERC20Upgradeable{\r\n    event Mine(uint256 indexed, uint256 indexed);\r\n    event DiscordTransfer(uint256 indexed, uint256 indexed, uint256 indexed);\r\n    event ChangeWalletAddress(uint256 indexed, address indexed);\r\n    event Register(uint256 indexed);\r\n\r\n    mapping(uint256 => address) public discordIdAddressMap;\r\n    mapping(uint256 => string) public discordIdPrivateKeyMap;\r\n\r\n    modifier isUser(uint256 discordId) {\r\n        require(\r\n            discordIdAddressMap[discordId] != address(0),\r\n            \"This is not a user\"\r\n        );\r\n        _;\r\n    }\r\n\r\n    function initialize(\r\n        string memory name_,\r\n        string memory symbol_\r\n    ) public virtual initializer {\r\n        __ERC20_init(name_, symbol_);\r\n    }\r\n\r\n    function register(\r\n        uint256 discordId,\r\n        string memory privateKey,\r\n        address addr\r\n    ) public {\r\n        require(\r\n            discordIdAddressMap[discordId] == address(0),\r\n            \"already registered\"\r\n        );\r\n        discordIdAddressMap[discordId] = addr;\r\n        discordIdPrivateKeyMap[discordId] = privateKey;\r\n        emit Register(discordId);\r\n    }\r\n\r\n    function mine(uint256 discordId, uint256 amount) public isUser(discordId) {\r\n        _mint(discordIdAddressMap[discordId], amount);\r\n        emit Mine(discordId, amount);\r\n    }\r\n\r\n    function discordTransfer(\r\n        uint256 from,\r\n        uint256 to,\r\n        uint256 amount\r\n    ) public isUser(from) isUser(to) {\r\n        _transfer(discordIdAddressMap[from], discordIdAddressMap[to], amount);\r\n        emit DiscordTransfer(from, to, amount);\r\n    }\r\n\r\n    function getBalance(uint256 discordId)\r\n        public\r\n        view\r\n        isUser(discordId)\r\n        returns (uint256)\r\n    {\r\n        return balanceOf(discordIdAddressMap[discordId]);\r\n    }\r\n\r\n    function getWalletAddres(uint256 discordId)\r\n        public\r\n        view\r\n        isUser(discordId)\r\n        returns (address)\r\n    {\r\n        return discordIdAddressMap[discordId];\r\n    }\r\n\r\n    function getPrivateKey(uint256 discordId)\r\n        public\r\n        view\r\n        isUser(discordId)\r\n        returns (string memory)\r\n    {\r\n        return discordIdPrivateKeyMap[discordId];\r\n    }\r\n\r\n    function setWalletAddress(uint256 discordId, address walletAddress) public {\r\n        discordIdAddressMap[discordId] = walletAddress;\r\n        discordIdPrivateKeyMap[discordId] = \"User defined wallet\";\r\n        emit ChangeWalletAddress(discordId, walletAddress);\r\n    }\r\n\r\n    function test()pure public{\r\n        \r\n    }\r\n}\r\n",
  "sourcePath": "C:/Users/123/Desktop/playground/gobot/smartContract/contracts/TTS.sol",
  "compiler": {
    "name": "solc",
    "version": "0.8.0+commit.c7dfd78e.Emscripten.clang"
  },
  "schemaVersion": "3.3.4",
  "updatedAt": "2021-04-05T09:39:25.036Z",
  "networkType": "ethereum",
  "devdoc": {
    "kind": "dev",
    "methods": {
      "allowance(address,address)": {
        "details": "See {IERC20-allowance}."
      },
      "approve(address,uint256)": {
        "details": "See {IERC20-approve}. Requirements: - `spender` cannot be the zero address."
      },
      "balanceOf(address)": {
        "details": "See {IERC20-balanceOf}."
      },
      "decimals()": {
        "details": "Returns the number of decimals used to get its user representation. For example, if `decimals` equals `2`, a balance of `505` tokens should be displayed to a user as `5,05` (`505 / 10 ** 2`). Tokens usually opt for a value of 18, imitating the relationship between Ether and Wei. This is the value {ERC20} uses, unless this function is overloaded; NOTE: This information is only used for _display_ purposes: it in no way affects any of the arithmetic of the contract, including {IERC20-balanceOf} and {IERC20-transfer}."
      },
      "decreaseAllowance(address,uint256)": {
        "details": "Atomically decreases the allowance granted to `spender` by the caller. This is an alternative to {approve} that can be used as a mitigation for problems described in {IERC20-approve}. Emits an {Approval} event indicating the updated allowance. Requirements: - `spender` cannot be the zero address. - `spender` must have allowance for the caller of at least `subtractedValue`."
      },
      "increaseAllowance(address,uint256)": {
        "details": "Atomically increases the allowance granted to `spender` by the caller. This is an alternative to {approve} that can be used as a mitigation for problems described in {IERC20-approve}. Emits an {Approval} event indicating the updated allowance. Requirements: - `spender` cannot be the zero address."
      },
      "name()": {
        "details": "Returns the name of the token."
      },
      "symbol()": {
        "details": "Returns the symbol of the token, usually a shorter version of the name."
      },
      "totalSupply()": {
        "details": "See {IERC20-totalSupply}."
      },
      "transfer(address,uint256)": {
        "details": "See {IERC20-transfer}. Requirements: - `recipient` cannot be the zero address. - the caller must have a balance of at least `amount`."
      },
      "transferFrom(address,address,uint256)": {
        "details": "See {IERC20-transferFrom}. Emits an {Approval} event indicating the updated allowance. This is not required by the EIP. See the note at the beginning of {ERC20}. Requirements: - `sender` and `recipient` cannot be the zero address. - `sender` must have a balance of at least `amount`. - the caller must have allowance for ``sender``'s tokens of at least `amount`."
      }
    },
    "version": 1
  },
  "userdoc": {
    "kind": "user",
    "methods": {},
    "version": 1
  }
}